:100000000C9462000C948A000C948A000C948A0070
:100010000C948A000C948A000C948A000C948A0038
:100020000C948A000C948A000C948A000C948A0028
:100030000C948A000C948A000C948A000C948A0018
:100040000C9476010C948A000C948A000C948A001B
:100050000C948A000C948A000C948A000C948A00F8
:100060000C948A000C948A000000000023002600F3
:10007000290000000000240027002A0000000000E2
:10008000250028002B0004040404040404040202D4
:100090000202020203030303030301020408102007
:1000A0004080010204081020010204081020000012
:1000B0000008000201000003040700000000000027
:1000C0000000DC0311241FBECFEFD8E0DEBFCDBFA0
:1000D00011E0A0E0B1E0E0E1F8E002C005900D928F
:1000E000A231B107D9F721E0A2E1B1E001C01D9230
:1000F000A633B207E1F710E0C2E6D0E004C02197D2
:10010000FE010E94FB03C136D107C9F70E94C0015E
:100110000C9406040C940000833081F028F48130A4
:1001200099F08230A1F008958730A9F08830B9F0B5
:100130008430D1F4809180008F7D03C08091800055
:100140008F7780938000089584B58F7702C084B53F
:100150008F7D84BD08958091B0008F7703C080911A
:10016000B0008F7D8093B00008951F93CF93DF93ED
:10017000282F30E0F901E255FF4F8491F901E6564E
:10018000FF4FD491F901EA57FF4FC491CC23C1F03E
:10019000162F81110E948C00EC2FF0E0EE0FFF1F54
:1001A000E458FF4FA591B4919FB7F894111104C082
:1001B0008C91D095D82302C0EC91DE2BDC939FBFAD
:1001C000DF91CF911F910895CF93DF9390E0FC01D1
:1001D000E656FF4F2491FC01EA57FF4F8491882394
:1001E00061F190E0880F991FFC01EE58FF4FC59117
:1001F000D491FC01E458FF4FA591B491611109C05D
:100200009FB7F8948881209582238883EC912E23D0
:100210000BC0623061F49FB7F8948881322F30951B
:1002200083238883EC912E2B2C939FBF06C08FB71E
:10023000F894E8812E2B28838FBFDF91CF9108950A
:100240002FB7F894609117017091180180911901EE
:1002500090911A012FBF0895862F642F0C94E4000B
:10026000CF93DF93FC01218930E0F901E255FF4F84
:100270008491F901E656FF4FD491F901EA57FF4FF7
:10028000C491CC2379F081110E948C00EC2FF0E016
:10029000EE0FFF1FE859FF4FA591B491EC91ED23AC
:1002A00081E009F480E08170DF91CF9108950F9390
:1002B0001F93CF93DF93082F162FD42FC8E06D2FF5
:1002C0006170802F0E94B500D69561E0812F0E9459
:1002D000B50060E0812F0E94B500C15081F7DF9129
:1002E000CF911F910F9108950E9401041F920F92C8
:1002F0000FB60F9211242F933F938F939F93AF9339
:10030000BF938091170190911801A0911901B091AC
:100310001A013091160123E0230F2D3720F40196A6
:10032000A11DB11D05C026E8230F0296A11DB11D18
:10033000209316018093170190931801A09319013F
:10034000B0931A018091120190911301A0911401B0
:10035000B09115010196A11DB11D809312019093DA
:100360001301A0931401B0931501BF91AF919F9118
:100370008F913F912F910F900FBE0F901F90189566
:10038000789484B5826084BD84B5816084BD85B570
:10039000826085BD85B5816085BD80916E0081607C
:1003A00080936E0010928100809181008260809322
:1003B0008100809181008160809381008091800024
:1003C0008160809380008091B10084608093B1004F
:1003D0008091B00081608093B00080917A00846049
:1003E00080937A0080917A00826080937A00809175
:1003F0007A00816080937A0080917A00806880938F
:100400007A001092C100C2E061E08C2F0E94E400EB
:10041000CF5FC830C9F760E083E00E94B50061E0BB
:1004200084E00E94B50062E087E00E94E40087E07B
:100430008093340110922B0183E291E00E943001FD
:10044000882329F080912B01836080932B010E94E7
:1004500020016093250170932601809327019093DA
:10046000280186E490E090932A018093290110925C
:10047000350100E010E00E942001C0901B01D090E7
:100480001C01E0901D01F0901E016C157D058E058C
:100490009F0508F4BCC0C0912101D0912201CA304F
:1004A000D10568F461E085E00E94B50060E086E077
:1004B0000E94B50048E063E082E00E945701CE014F
:1004C0000A970A9768F461E085E00E94B50060E051
:1004D00086E00E94B5004EE363E082E00E9457018F
:1004E000CE0144970A9768F461E085E00E94B50068
:1004F00060E086E00E94B50044E463E082E00E9490
:100500005701CE014E970A9768F461E085E00E949A
:10051000B50060E086E00E94B50044E263E082E05E
:100520000E945701CE0188970A9768F461E085E040
:100530000E94B50060E086E00E94B50042E363E0FF
:1005400082E00E945701CE01C2970A9768F461E0E9
:1005500085E00E94B50060E086E00E94B50041E2BF
:1005600063E082E00E945701CE01CC970A9768F4BD
:1005700061E085E00E94B50060E086E00E94B50081
:1005800041E063E082E00E945701CE018654910968
:100590000A9768F461E085E00E94B50060E086E0BB
:1005A0000E94B50048E363E082E00E945701CE015B
:1005B000805591090A9768F461E085E00E94B500D2
:1005C00060E086E00E94B50040E063E082E00E94C7
:1005D0005701CA55D1092A9768F461E085E00E9465
:1005E000B50060E086E00E94B50040E263E082E092
:1005F0000E9457018AE0C80ED11CE11CF11CC09278
:100600001B01D0921C01E0921D01F0921E010E947C
:100610002001C0901B01D0901C01E0901D01F090C2
:100620001E016C157D058E059F0500F160E085E0DB
:100630000E94B50061E086E00E94B500E0911F01D4
:10064000F0912001E85FFE4F408163E082E00E946C
:1006500057018AE0C80ED11CE11CF11CC0921B019D
:10066000D0921C01E0921D01F0921E0180912B019D
:100670008B7F80932B0183E291E00E943001C82F91
:1006800080912B0186958170C81789F00E94200106
:100690006093250170932601809327019093280190
:1006A00090912B0182E0892780932B0153C00E94F7
:1006B0002001C0902501D0902601E0902701F09004
:1006C0002801AB01BC014C195D096E097F098091BD
:1006D000290190912A01A0E0B0E0481759076A0764
:1006E0007B07C0F180912B018170C81799F10E949E
:1006F0002001609325017093260180932701909338
:10070000280190912B0181E08927846080932B013F
:100710000E942001C0902C01D0902D01E0902E016C
:10072000F0902F01DC01CB018C199D09AE09BF09A6
:100730008093300190933101A0933201B093330143
:100740000E94200160932C0170932D0180932E0153
:1007500090932F0180912B0182FF1DC08170909199
:100760003501981318C080912101909122010196C2
:1007700084369105E4F010922201109221018091BB
:100780001F019091200101968A3091055CF49093AD
:10079000200180931F010115110509F46CCE0E9400
:1007A000000069CE1092200110921F01F4CF9093A7
:1007B000220180932101E3CFE3E2F1E01282138270
:1007C000148215828AE090E0978386831086118ACE
:1007D00084E091E09183808381E0828B8AE090E0E5
:1007E000A0E0B0E080931B0190931C01A0931D0139
:1007F000B0931E010895EE0FFF1F0590F491E02DB8
:10080000099481E090E0F8940C940604F894FFCFEA
:100810000000000030012C01083E44243221013840
:020820000020B6
:00000001FF
