:100000000C9462000C948A000C948A000C948A0070
:100010000C948A000C948A000C948A000C948A0038
:100020000C948A000C948A000C948A000C948A0028
:100030000C948A000C948A000C948A000C948A0018
:100040000C9436010C948A000C948A000C948A005B
:100050000C948A000C948A000C948A000C948A00F8
:100060000C948A000C948A000000000023002600F3
:10007000290000000008000201000003040700003E
:1000800000000000000000000000250028002B00F8
:1000900000000000240027002A00040404040404D3
:1000A0000404020202020202030303030303010227
:1000B00004081020408001020408102001020408F6
:1000C0001020940311241FBECFEFD8E0DEBFCDBFB8
:1000D00011E0A0E0B1E0EEE7F7E002C005900D927C
:1000E000AA30B107D9F721E0AAE0B1E001C01D9222
:1000F000A432B207E1F710E0C2E6D0E004C02197D5
:10010000FE010E94B703C136D107C9F70E948001E2
:100110000C94BD030C940000833081F028F48130EE
:1001200099F08230A1F008958730A9F08830B9F0B5
:100130008430D1F4809180008F7D03C08091800055
:100140008F7780938000089584B58F7702C084B53F
:100150008F7D84BD08958091B0008F7703C080911A
:10016000B0008F7D8093B0000895CF93DF93282F48
:1001700030E0F901EE58FF4F8491F901E255FF4F4D
:10018000D491F901E656FF4FC491CC2391F081112F
:100190000E948C00EC2FF0E0EE0FFF1FE859FF4F9C
:1001A000A591B491EC91ED2381E090E021F480E001
:1001B00002C080E090E0DF91CF9108951F93CF932C
:1001C000DF93282F30E0F901EE58FF4F8491F901B9
:1001D000E255FF4FD491F901E656FF4FC491CC236D
:1001E000C1F0162F81110E948C00EC2FF0E0EE0F71
:1001F000FF1FEA57FF4FA591B4919FB7F8941111D3
:1002000004C08C91D095D82302C0EC91DE2BDC93F6
:100210009FBFDF91CF911F9108952FB7F894609100
:100220000F017091100180911101909112012FBF67
:1002300008950F931F93CF93DF93082F162FD42F7A
:10024000C8E06D2F6170802F0E94DE00D69561E0BE
:10025000812F0E94DE0060E0812F0E94DE00C150ED
:1002600081F7DF91CF911F910F9108951F920F9207
:100270000FB60F9211242F933F938F939F93AF93B9
:10028000BF9380910F0190911001A0911101B09145
:10029000120130910E0123E0230F2D3720F4019637
:1002A000A11DB11D05C026E8230F0296A11DB11D99
:1002B00020930E0180930F0190931001A0931101E0
:1002C000B093120180910A0190910B01A0910C0151
:1002D000B0910D010196A11DB11D80930A0190936B
:1002E0000B01A0930C01B0930D01BF91AF919F91B1
:1002F0008F913F912F910F900FBE0F901F901895E7
:10030000789484B5826084BD84B5816084BD85B5F0
:10031000826085BD85B5816085BD80916E008160FC
:1003200080936E00109281008091810082608093A2
:1003300081008091810081608093810080918000A4
:100340008160809380008091B10084608093B100CF
:100350008091B00081608093B00080917A008460C9
:1003600080937A0080917A00826080937A008091F5
:100370007A00816080937A0080917A00806880930F
:100380007A001092C10022E030E0F901E255FF4FFF
:100390004491F901E656FF4F8491882399F090E04B
:1003A000880F991FFC01E057FF4FA591B491FC0104
:1003B000EA57FF4F859194918FB7F894EC91E42B15
:1003C000EC938FBF2F5F3F4F28303105F1F660E08F
:1003D00083E00E94DE0061E084E00E94DE00E5EB45
:1003E000F0E02491E1EAF0E084918823C1F090E00C
:1003F000880F991FFC01E057FF4FC591D491FC0174
:10040000EA57FF4FA591B4919FB7F8948881322F96
:10041000309583238883EC91E22BEC939FBF00E01F
:1004200010E00E940D01C0901301D0901401E090E3
:100430001501F09016016C157D058E059F0508F4D9
:10044000BCC0C0911901D0911A01CA30D10568F41D
:1004500061E085E00E94DE0060E086E00E94DE0050
:1004600048E063E082E00E941901CE010A970A97F2
:1004700068F461E085E00E94DE0060E086E00E94B2
:10048000DE004EE363E082E00E941901CE01449752
:100490000A9768F461E085E00E94DE0060E086E093
:1004A0000E94DE0044E463E082E00E941901CE0174
:1004B0004E970A9768F461E085E00E94DE0060E0F4
:1004C00086E00E94DE0044E263E082E00E941901BF
:1004D000CE0188970A9768F461E085E00E94DE000B
:1004E00060E086E00E94DE0042E363E082E00E947A
:1004F0001901CE01C2970A9768F461E085E00E9475
:10050000DE0060E086E00E94DE0041E263E082E01F
:100510000E941901CE01CC970A9768F461E085E04A
:100520000E94DE0060E086E00E94DE0041E063E0C1
:1005300082E00E941901CE01865491090A9768F45D
:1005400061E085E00E94DE0060E086E00E94DE005F
:1005500048E363E082E00E941901CE0180559109D1
:100560000A9768F461E085E00E94DE0060E086E0C2
:100570000E94DE0040E063E082E00E941901CA555B
:10058000D1092A9768F461E085E00E94DE0060E00E
:1005900086E00E94DE0040E263E082E00E941901F2
:1005A00084E1C80ED11CE11CF11CC0921301D09251
:1005B0001401E0921501F09216010E940D01C09005
:1005C0001301D0901401E0901501F09016016C1504
:1005D0007D058E059F0500F160E085E00E94DE004C
:1005E00061E086E00E94DE00E0911701F0911801C1
:1005F000E050FF4F408163E082E00E94190184E1F6
:10060000C80ED11CE11CF11CC0921301D092140140
:10061000E0921501F0921601809122010E94B5002E
:10062000C82F80912101C81701F10E940D0120916E
:100630001B0130911C01AB01BC01421B530B610932
:10064000710980911D0190911E01A0E0B0E0481752
:1006500059076A077B0748F00E940D0170931C013F
:1006600060931B01C093210124C080911F019091D0
:100670002001892B09F44BC00E940D0120911B0120
:1006800030911C01AB01BC01421B530B6109710984
:1006900080911F0190912001A0E0B0E04817590718
:1006A0006A077B07A0F10E940D0170931C01609303
:1006B0001B011092200110921F0181E08093230101
:1006C000809123018823E1F080912101811118C0DC
:1006D0008091190190911A01019684369105FCF0E0
:1006E00010921A011092190180911701909118012E
:1006F00001968A30910574F4909318018093170144
:100700000115110509F48DCE0E9400008ACE1092C9
:100710002301D6CF1092180110921701F1CF9093B8
:100720001A0180931901E0CFCF93DF93CBE1D1E0A1
:1007300084E690E09B838A831D821C820E940D01C7
:100740007983688387E00E94B5008E8387E08F837A
:1007500084E190E0A0E0B0E0809313019093140155
:10076000A0931501B0931601DF91CF910895EE0F7C
:0E077000FF1F0590F491E02D0994F894FFCF3F
:0A077E00083E442432210138002017
:107E0000112484B714BE81FFFDD085E080938100EA
:107E100082E08093C00088E18093C10096E0909357
:107E2000C20090E19093C400809360008EE0809344
:107E30006000259A86E020E33CEF91E030938500D6
:107E40002093840096BBB09BFECF1D9AA8958150CD
:107E5000A9F7C0E0D0E008E138E0F32EEE24E39487
:107E600045E0B42E51E1A52E13E0A7D0813491F462
:107E7000A4D0D82EAED082E8D81203C084E096D029
:107E800092C0E1E8DE1203C084E090D08CC083E0B1
:107E90008DD089C0823419F484E1A7D084C08534A0
:107EA00019F485E0A2D07FC0853549F486D0C82F6B
:107EB00084D0D0E0D82BCC0FDD1F8BD074C086359A
:107EC00029F484E092D080E071D06DC0843609F04E
:107ED0003FC073D072D0982E70D0C115F0E7DF0785
:107EE00038F4FE0117BFE895C12CDD24D39403C0FC
:107EF000C12CDD24D39461D0F60181936F019E12D1
:107F0000FACFC115F0E7DF0718F0FE0117BFE895BB
:107F100060D007B600FCFDCFFE01A0E0B1E08C917F
:107F200011962C91119790E0922B0C01E7BEE895E9
:107F3000112432961296A03881E0B80781F7FE012D
:107F4000B7BEE89507B600FCFDCFA7BEE8952BC0ED
:107F50008437B1F432D031D0982E2FD03AD0892C3A
:107F6000FE016F018FEFC81AD80A84911FD08A943E
:107F7000F6018110F6CF21969A94C90DD11D13C038
:107F8000853741F426D08EE111D085E90FD08FE0FE
:107F90000DD009C0813531F400936000F09260008B
:107FA00018D001C016D080E101D05FCF9091C00001
:107FB00095FFFCCF8093C60008958091C00087FF95
:107FC000FCCF8091C00084FD01C0A8958091C600BF
:107FD0000895F3DF803239F088E18093600088E013
:107FE00080936000FFCF84E1E1CFCF93C82FE5DF1E
:107FF000C150E9F7CF91EDCFE0E6F0E098E1908352
:1080000080830895E0E6F0E088E180831082EE2727
:04801000FF270994A9
:027FFE00040479
:0400000300007E007B
:00000001FF
